:100000000C945D000C9485000C9485000C94850084
:100010000C9485000C9485000C9485000C9485004C
:100020000C9485000C9485000C9485000C9485003C
:100030000C9485000C9485000C9485000C9485002C
:100040000C9402030C9485000C9485000C9485009C
:100050000C9485000C9485000C9485000C9485000C
:100060000C944C030C948500000000002400270031
:100070002A0000000000250028002B0004040404CE
:100080000404040402020202020203030303030342
:10009000010204081020408001020408102001021F
:1000A00004081020000000080002010000030407FB
:1000B00000000000000000005C0511241FBECFEF0F
:1000C000D8E0DEBFCDBF11E0A0E0B1E0E6E0FBE0AC
:1000D00002C005900D92A631B107D9F721E0A6E143
:1000E000B1E001C01D92A13DB207E1F710E0CDE5FE
:1000F000D0E004C02197FE010E947B05CC35D107DA
:10010000C9F70E946B040C9481050C94000090E0E8
:10011000FC01EC55FF4F2491FC01E057FF4F349157
:10012000FC01E458FF4FE491EE23C9F0222339F09B
:10013000233001F1A8F4213019F1223029F1F0E047
:10014000EE0FFF1FEE58FF4FA591B4918FB7F894B3
:10015000EC91611126C030953E233C938FBF0895EA
:100160002730A9F02830C9F0243049F78091800069
:100170008F7D03C0809180008F7780938000DFCFD8
:1001800084B58F7784BDDBCF84B58F7DFBCF809125
:10019000B0008F778093B000D2CF8091B0008F7D78
:1001A000F9CF3E2BDACF3FB7F8948091C1019091FF
:1001B000C201A091C301B091C40126B5A89B05C09E
:1001C0002F3F19F00196A11DB11D3FBFBA2FA92FD6
:1001D000982F8827BC01CD01620F711D811D911DD3
:1001E00043E0660F771F881F991F4A95D1F708953E
:1001F0008F929F92AF92BF92CF92DF92EF92FF9237
:100200004B015C010E94D3006B017C010E94D30072
:100210006C197D098E099F09683E7340810591051F
:10022000A8F321E0821A9108A108B10888EEC80E4F
:1002300083E0D81EE11CF11C81149104A104B104D7
:1002400029F7FF90EF90DF90CF90BF90AF909F90F5
:100250008F900895E091B401F091B501309729F0A5
:100260001092AF011092AE0109940895CF93DF93DD
:10027000AC01E091B201F091B3013097F1F09091AF
:10028000B1018091B0019817C0F090E0292F30E0C3
:100290002617370754F4D901A65EBE4F240F351F29
:1002A000E90128812C939F5FF1CF1092B1016093F7
:1002B000B001CB01DF91CF910994DF91CF910895E7
:1002C00020916001260F3327331F21323105ECF4D2
:1002D00020918401FC0190E080E0243069F082E00C
:1002E0000895A09160012191AC01405C5E4FA40F84
:1002F000B52FB11D2C930196861798F3809160015C
:10030000680F6093600180E0089581E00895109285
:10031000840181E0809386011092850161E082E191
:100320000E94870061E083E10E948700E9EBF0E032
:1003300080818E7F808380818D7F808380E2809327
:10034000B80085E48093BC0008950895E091B10160
:100350008091B001E81730F4F0E0E65EFE4F808156
:1003600090E008958FEF9FEF08959091B1018091F3
:10037000B0012FEF3FEF981748F4E92FF0E0E65E69
:10038000FE4F208130E09F5F9093B101C901089535
:100390008091B0019091B101891B990B0895CF9381
:1003A000DF93CB01EA01642F0E946001CE01DF914F
:1003B000CF910895CF93DF931F92CDB7DEB76983B6
:1003C00061E0CE0101960E94600181E090E00F9013
:1003D000DF91CF910895682F85EC91E00C94DA01BC
:1003E00090E080E00895809119018C3039F08032DE
:1003F000A1F48091B60190E00C94EB018AEE90E0BC
:100400000E94EB0187E090E00E94EB0182E090E027
:100410000E94EB0181EC90E0EFCF8FEF90E0ECCF0A
:10042000CF93DF9385ED8093BC0080913C01909148
:100430003D01A0913E01B0913F010796A11DB11D64
:1004400023E0B695A795979587952A95D1F72091A2
:10045000BC0024FD03C01092840136C040913C01D1
:1004600050913D0160913E0170913F01452B462B1B
:10047000472B69F30097A105B10541F025E12A95C5
:10048000F1F700000197A109B109E1CF80913B018B
:1004900091E090933A018823B9F0C091B800D091CF
:1004A000BA008091BC008A7B8093BC0060E082E14E
:1004B0000E94870060E083E10E9487000E9487011C
:1004C000D093BA00C093B800DF91CF910895CF9335
:1004D000DF93181619060CF092C0EC0185EC91E040
:1004E0000E94B501809319012197E9F085EC91E014
:1004F0000E94B5018093180180911901813159F151
:10050000893909F462C0803171F480911801811138
:1005100016C060E08DE00E948700109217011092D3
:10052000B7011092B6019091B0018091B101981776
:1005300009F465C085EC91E00E94B501F4CF61E05B
:100540008DE00E94870081E0809317011092B7012F
:100550008093B601E8CF809118018093B701109283
:1005600017018091B701813001F588EE93E0A0E09A
:10057000B0E08093000190930101A0930201B09339
:1005800003012FB7F8948091BD019091BE01A09115
:10059000BF01B091C0012FBF8093B8019093B90102
:1005A000A093BA01B093BB01BECF8091B701823056
:1005B00029F48AEF90E0A0E0B0E0DBCF60E08DE0CE
:1005C0000E9487001092B601DCCF80911801803B19
:1005D00009F0A9CF67E08EEF91E00E946D0560EB16
:1005E0008FEF91E00E946D0588E198E00FB6F894D6
:1005F000A895809360000FBE90936000FFCFDF91BD
:10060000CF9108951F920F920FB60F9211242F933E
:100610003F938F939F93AF93BF938091BD01909130
:10062000BE01A091BF01B091C0013091BC0126E094
:10063000230F2D3758F50296A11DB11D2093BC0143
:100640008093BD019093BE01A093BF01B093C00100
:100650008091C1019091C201A091C301B091C401E8
:100660000196A11DB11D8093C1019093C201A09379
:10067000C301B093C401BF91AF919F918F913F91FE
:100680002F910F900FBE0F901F90189529E8230F00
:100690000396A11DB11DD2CF1F920F920FB60F92DC
:1006A00011242F933F934F935F936F937F938F9377
:1006B0009F93AF93BF93EF93FF938091B900887F8F
:1006C000803609F44AC0F0F5883209F4A7C018F55D
:1006D000803109F49BC0B8F4882309F4F9C088304C
:1006E00009F494C0FF91EF91BF91AF919F918F91C9
:1006F0007F916F915F914F913F912F910F900FBE1E
:100700000F901F901895883109F488C0803251F7F6
:100710008093830114C0803409F49DC040F4803379
:10072000B9F38833F9F68093830185ECB0C0803546
:1007300009F485C0883509F496C0883499F60E947A
:100740001002D0CF883909F48CC038F5883729F0E9
:1007500050F4883611F0803729F683E080938401C5
:100760001092820157C0883809F47BC0803919F093
:10077000803809F0B7CF80918201803208F071C0D3
:10078000E091820181E08E0F809382018091BB0015
:10079000F0E0EE59FE4F80833DC0803B39F0E0F43D
:1007A000803A09F479C0883A09F09CCF84E08093BC
:1007B00084011092610110926001E091AC01F0910E
:1007C000AD0109958091600181110FC081E0809396
:1007D00060011092400109C0803C09F4A6CF883C1A
:1007E00009F4A3CF883B09F07DCFE091610181E05E
:1007F0008E0F80936101F0E0E05CFE4F808180937A
:10080000BB00909161018091600129C08091A90194
:100810008093BB0085EC8093BC0064CF9091A801CD
:100820008091A701981758F5E091A80181E08E0FFB
:100830008093A801F0E0E957FE4F8081E9CFE09175
:10084000A80181E08E0F8093A8018091BB00F0E0A9
:10085000E957FE4F80839091A8018091A7019817D6
:10086000C8F285E8D8CFE091A80181E08E0F80938F
:10087000A8018091BB00F0E0E957FE4F8083809192
:10088000860181115CCF81E08093850184EA8093A9
:10089000BC001092840126CF85EC8093BC0010929E
:1008A000840180918201803230F4E0918201F0E095
:1008B000EE59FE4F10826091820170E0E091AA0132
:1008C000F091AB0182E691E00995109282010ACF86
:1008D0001092830134CF789484B5826084BD84B54E
:1008E000816084BD85B5826085BD85B5816085BD2B
:1008F00080916E00816080936E00109281008091E3
:10090000810082608093810080918100816080936A
:100910008100809180008160809380008091B1008F
:1009200084608093B1008091B00081608093B000BA
:1009300080917A00846080937A0080917A0082604E
:1009400080937A0080917A008E7F80937A008091E4
:100950007A00806880937A001092C100EDE9F0E09F
:100960002491E9E8F0E08491882399F090E0880FE1
:10097000991FFC01E859FF4FA591B491FC01EE5875
:10098000FF4F859194918FB7F894EC91E22BEC9303
:100990008FBF60E08DE00E9487001092B10110923D
:1009A000B0011092AF011092AE010E9487018AE25D
:1009B00091E09093AD018093AC0186E391E0909338
:1009C000AB018093AA0180E68093BA0087E692E0AB
:1009D0009093B3018093B20183EF91E09093B501BE
:1009E0008093B40188E19FE00FB6F894A8958093B6
:1009F00060000FBE9093600064E670E080E090E0DD
:100A00000E94F800C0E0D0E011E0A8958FB7F894FC
:100A10004091BD015091BE016091BF017091C00134
:100A20008FBF8091B701882379F18091B8019091AF
:100A3000B901A091BA01B091BB016A017B01C81A4A
:100A4000D90AEA0AFB0AD701C601C0900001D0907A
:100A50000101E0900201F09003018C159D05AE05A7
:100A6000BF05F0F04093B8015093B9016093BA010B
:100A70007093BB018091B601811106C01093B6013D
:100A800061E08DE00E9487006AE070E080E090E025
:100A90000E94F800209709F4B8CF0E940000B5CF5B
:100AA000C297A105B10530F38091B601882361F3A7
:100AB0001092B60160E0E5CFE5ECF1E0138212821E
:100AC00088EE93E0A0E0B0E084839583A683B783AB
:100AD00088E091E0918380830895262FF999FECFD5
:100AE0001FBA92BD81BD20BD0FB6F894FA9AF99A4B
:100AF0000FBE01960895EE0FFF1F0590F491E02DB3
:060B00000994F894FFCFF8
:100B0600E803000000000000DA01CF01F001A501B2
:060B1600C801B501A601B3
:00000001FF
