:100000000C9472000C949A000C949A000C949A0030
:100010000C949A000C949A000C949A000C949A00F8
:100020000C949A000C949A000C949A000C949A00E8
:100030000C949A000C949A000C949A000C949A00D8
:100040000C941F050C949A000C949A000C949A003E
:100050000C949A000C949A000C949A000C949A00B8
:100060000C9469050C949A00005EBCE2613FDD834C
:10007000C29C7E20A3FD1F41009D23BE46DB65F888
:100080008C11AF32CA57E974000000080002010069
:100090000003040700000000000000000000000052
:1000A000250028002B0000000000240027002A0063
:1000B00000000000230026002900040404040404B6
:1000C0000404020202020202030303030303010207
:1000D00004081020408001020408102001020408D6
:1000E0001020880611241FBECFEFD8E0DEBFCDBFA1
:1000F00011E0A0E0B1E0E8E5F7E102C005900D9263
:10010000A032B107D9F722E0A0E2B1E001C01D9210
:10011000AB30B207E1F710E0C2E7D0E004C02197AE
:10012000FE010E94730AC137D107C9F70E9409076F
:100130000C94AA0B0C94000090E0FC01E857FF4FD0
:100140002491FC01E253FF4F3491FC01E654FF4F30
:10015000E491EE23C9F0222339F0233001F1A8F411
:10016000213019F1223029F1F0E0EE0FFF1FE456A3
:10017000FF4FA591B4918FB7F894EC91611126C00F
:1001800030953E233C938FBF08952730A9F0283047
:10019000C9F0243049F7809180008F7D03C08091A1
:1001A00080008F7780938000DFCF84B58F7784BD08
:1001B000DBCF84B58F7DFBCF8091B0008F778093AC
:1001C000B000D2CF8091B0008F7DF9CF3E2BDACF37
:1001D0003FB7F8948091D6019091D701A091D801B2
:1001E000B091D90126B5A89B05C02F3F19F0019603
:1001F000A11DB11D3FBFBA2FA92F982F8827BC0181
:10020000CD01620F711D811D911D43E0660F771FA7
:10021000881F991F4A95D1F708958F929F92AF92A8
:10022000BF92CF92DF92EF92FF926B017C010E940E
:10023000E8004B015C01C114D104E104F104B9F000
:100240000E94E800681979098A099B09683E734091
:100250008105910580F321E0C21AD108E108F10877
:1002600088EE880E83E0981EA11CB11CE4CFFF909D
:10027000EF90DF90CF90BF90AF909F908F900895B8
:10028000E091BE01F091BF01309729F01092B901C1
:100290001092B80109940895CF93DF93AC01E091D7
:1002A000BC01F091BD013097F1F09091BB018091BC
:1002B000BA019817C0F090E0292F30E026173707D1
:1002C00054F4D901AC5DBE4F240F351FE9012881DC
:1002D0002C939F5FF1CF1092BB016093BA01CB01C9
:1002E000DF91CF910994DF91CF91089520916A0118
:1002F000260F3327331F21323105ECF420918E0174
:10030000FC0190E080E0243069F082E00895A09143
:100310006A012191AC01465B5E4FA40FB52FB11D60
:100320002C930196861798F380916A01680F609369
:100330006A0180E0089581E0089510928E0181E0C5
:100340008093900110928F0161E082E10E949C00F5
:1003500061E083E10E949C00E9EBF0E080818E7F08
:10036000808380818D7F808380E28093B80085E4E4
:100370008093BC0008950895E091BB018091BA017B
:10038000E81730F4F0E0EC5DFE4F808190E00895D6
:100390008FEF9FEF08959091BB018091BA012FEFED
:1003A0003FEF981748F4E92FF0E0EC5DFE4F208115
:1003B00030E09F5F9093BB01C90108958091BA011D
:1003C0009091BB01891B990B0895CF93DF93CB01CB
:1003D000EA01642F0E947601CE01DF91CF9108954A
:1003E000CF93DF931F92CDB7DEB7698361E0CE0173
:1003F00001960E94760181E090E00F90DF91CF910D
:100400000895682F8AED91E00C94F00190E080E06F
:100410000895DC0180E0615090F09D919827E92FCC
:10042000EF70F0E0E859FF4F2491E92FE295EF706B
:10043000F0E0E858FF4FE491822F8E27ECCF08952B
:10044000DC012C911196ED91FC91F8948181822B25
:1004500081839281322F30959323928382E090E0C2
:100460000197F1F781818323818380E190E00197F7
:10047000F1F790817894E6E6F0E03197F1F7922376
:1004800081E009F480E00895FC0190810180F2810F
:10049000E02D292F209560FF14C0F89482818223DB
:1004A00082838181892B8183A0E1B0E01197F1F7EC
:1004B0008281982B928378948AE690E00197F1F7F5
:1004C0000895F8948281822382838181892B81839C
:1004D000AEE7B0E01197F1F78281982B9283789480
:1004E00086E090E0EBCFDF92EF92FF920F931F93A5
:1004F000CF93DF93EC01D62EE42E08E010E0FF242A
:10050000F39461E08D2D8F2109F460E0CE010E940B
:100510004402FF0C01501109A1F7E11010C0F8943A
:10052000E981FA8191818881809589238183E9819C
:10053000FA81928188818095892382837894DF91E2
:10054000CF911F910F91FF90EF90DF900895EF9260
:10055000FF920F931F93CF93DF938C017B0140E0B9
:1005600065E50E947302E70188E0E80EF11C6991DD
:1005700040E0C8010E947302CE15DF05C1F7DF918C
:10058000CF911F910F91FF90EF90089580912301DB
:10059000833089F038F46091C201823071F08FEFBE
:1005A00090E007C08C3069F08032C9F78091C001BB
:1005B00090E00C9401026091C3018AED91E00C94EB
:1005C000F0018AEE90E00E94010287E090E00E9434
:1005D000010282E090E00E94010282EE90E0E9CF09
:1005E000FC0190810180F281E02DF8948181292F16
:1005F00020958223818378943DE7315011F18081E9
:100600008923D9F3F8948281822382838181892B83
:1006100081837894ACEBB3E01197F1F7F894818182
:1006200082238183A8E8B0E01197F1F780819823B5
:1006300081E009F080E07894E0E3F3E03197F1F7AE
:10064000089580E008956F927F928F929F92AF926B
:10065000BF92CF92DF92EF92FF920F931F93CF93AF
:10066000DF938C01EB018091EF019091F0010E94EA
:10067000F002882309F43FC0B8018091EF01909106
:10068000F0010E94A70240E06EEB8091EF01909193
:10069000F0010E9473027E016E0189E0C80ED11C38
:1006A0008E01A090EF01B090F00188E0882E912C8F
:1006B000712C66246394C5010E9420028111762862
:1006C000660CE1E08E1A9108B1F7F80171928F0182
:1006D000CE16DF0631F78091EF019091F0010E9474
:1006E000F002813041F4F70181917F01811105C051
:1006F000E017F107C1F790E008C068E0CE010E9462
:10070000090291E028852813F6CF892FDF91CF9138
:100710001F910F91FF90EF90DF90CF90BF90AF901F
:100720009F908F907F906F900895BF92CF92DF92AD
:10073000EF92FF920F931F93CF93DF93EC01B62EAE
:10074000C72E8D85811105C0CE010E94F002811156
:100750000EC01B861D861C8680E0DF91CF911F9105
:100760000F91FF90EF90DF90CF90BF90089540E001
:1007700060EFCE010E94730201E0E12CD12C11E068
:10078000CE010E942002F82ECE010E94200291E0AC
:10079000F91218C0813099F51134D8F2DB86D110E6
:1007A00002C081E08D878B81882399F22396EB2DFF
:1007B000FC2DCF01089629912193E817F907D9F765
:1007C00081E0CBCFEE2DF0E0F8120FC08B8518172B
:1007D000A0F4DE01AE0FBF1F13968C91802379F435
:1007E000F12C193008F41C87D12EEC0FFD1F8381EA
:1007F000902F9095892383830AC08113F1CFFE0146
:10080000EE0DF11D8381802B8383FF24F3946F2DE4
:10081000CE010E9444021F5F000F11F4E39401E037
:1008200087E08E1508F0ACCFB7CFCF93DF9385ED7F
:100830008093BC008091460190914701A0914801AE
:10084000B09149010796A11DB11D23E0B695A7956A
:10085000979587952A95D1F72091BC0024FD03C078
:1008600010928E0136C0409146015091470160912F
:10087000480170914901452B462B472B69F300979E
:10088000A105B10541F025E12A95F1F70000019796
:10089000A109B109E1CF8091450191E09093440114
:1008A0008823B9F0C091B800D091BA008091BC0003
:1008B0008A7B8093BC0060E082E10E949C0060E043
:1008C00083E10E949C000E949D01D093BA00C093D6
:1008D000B800DF91CF910895CF93DF9318161906D2
:1008E0000CF0AAC0EC018AED91E00E94CB0180934C
:1008F00023012197E9F08AED91E00E94CB018093DA
:10090000220180912301813159F1893909F47AC09A
:10091000803171F480912201811116C060E08DE078
:100920000E949C00109221011092C1011092C001FE
:100930009091BA018091BB01981709F47DC08AEDAE
:1009400091E00E94CB01F4CF61E08DE00E949C0019
:1009500081E0809321011092C1018093C001E8CF12
:10096000809122018093C101109221018091C101E7
:10097000813061F588EE93E0A0E0B0E0809304015F
:1009800090930501A0930601B093070184EF91E0D5
:10099000A0E0B0E08093000190930101A0930201D8
:1009A000B09303012FB7F8948091D2019091D301B5
:1009B000A091D401B091D5012FBF8093CD01909328
:1009C000CE01A093CF01B093D001B2CF8091C101ED
:1009D000823089F48AEF90E0A0E0B0E080930401D7
:1009E00090930501A0930601B09307018DE790E075
:1009F000A0E0B0E0CFCF60E08DE00E949C001092BC
:100A0000C001D0CF80912201803B09F091CF67E0F7
:100A10008EEF91E00E943D0A60EB8FEF91E00E9423
:100A20003D0A88E198E00FB6F894A895809360009D
:100A30000FBE90936000FFCFDF91CF9108951F927A
:100A40000F920FB60F9211242F933F938F939F9382
:100A5000AF93BF938091D2019091D301A091D40123
:100A6000B091D5013091D10126E0230F2D3758F5F3
:100A70000296A11DB11D2093D1018093D2019093C4
:100A8000D301A093D401B093D5018091D601909168
:100A9000D701A091D801B091D9010196A11DB11D36
:100AA0008093D6019093D701A093D801B093D90138
:100AB000BF91AF919F918F913F912F910F900FBE5A
:100AC0000F901F90189529E8230F0396A11DB11DC3
:100AD000D2CF1F920F920FB60F9211242F933F93F4
:100AE0004F935F936F937F938F939F93AF93BF9336
:100AF000EF93FF938091B900887F803609F44AC054
:100B0000F0F5883209F4A7C018F5803109F49BC0CC
:100B1000B8F4882309F4F9C0883009F494C0FF912F
:100B2000EF91BF91AF919F918F917F916F915F9165
:100B30004F913F912F910F900FBE0F901F901895DE
:100B4000883109F488C0803251F780938D0114C038
:100B5000803409F49DC040F48033B9F38833F9F64A
:100B600080938D0185ECB0C0803509F485C088354F
:100B700009F496C0883499F60E941504D0CF8839BC
:100B800009F48CC038F5883729F050F4883611F014
:100B9000803729F683E080938E0110928C0157C034
:100BA000883809F47BC0803919F0803809F0B7CF54
:100BB00080918C01803208F071C0E0918C0181E05D
:100BC0008E0F80938C018091BB00F0E0E459FE4FC2
:100BD00080833DC0803B39F0E0F4803A09F479C06D
:100BE000883A09F09CCF84E080938E0110926B01CB
:100BF00010926A01E091B601F091B70109958091D8
:100C00006A0181110FC081E080936A0110924A014C
:100C100009C0803C09F4A6CF883C09F4A3CF883BE7
:100C200009F07DCFE0916B0181E08E0F80936B0125
:100C3000F0E0E65BFE4F80818093BB0090916B01FA
:100C400080916A0129C08091B3018093BB0085EC3B
:100C50008093BC0064CF9091B2018091B10198174C
:100C600058F5E091B20181E08E0F8093B201F0E07F
:100C7000EF56FE4F8081E9CFE091B20181E08E0F07
:100C80008093B2018091BB00F0E0EF56FE4F80836D
:100C90009091B2018091B1019817C8F285E8D8CF40
:100CA000E091B20181E08E0F8093B2018091BB0090
:100CB000F0E0EF56FE4F80838091900181115CCF70
:100CC00081E080938F0184EA8093BC0010928E01B2
:100CD00026CF85EC8093BC0010928E0180918C0110
:100CE000803230F4E0918C01F0E0E459FE4F108244
:100CF00060918C0170E0E091B401F091B5018CE657
:100D000091E0099510928C010ACF10928D0134CF99
:100D1000CF93DF931092DD011092DC0188EE93E017
:100D2000A0E0B0E08093DE019093DF01A093E001AA
:100D3000B093E10182E191E09093DB018093DA01CD
:100D400040ED50E0FA0164918CEB90E0FC012491BD
:100D50002223C1F030E0220F331FF901EA55FF4F83
:100D6000A591B491F901E456FF4FC591D4917FB795
:100D7000F8943C91262F209532233C9338812323ED
:100D800028837FBFFA0144914093FD01FC018491C7
:100D9000E82FF0E0EE0FFF1FE055FF4F8591949193
:100DA0009093FF018093FE011092080210920A02B4
:100DB0001092090210920702109206021092050288
:100DC0001092040210920302109202021092010289
:100DD000109200021092FC011092FB011092E701A8
:100DE0008DEF91E09093F0018093EF011092ED016F
:100DF0001092EE011092E60189E08093E90181E012
:100E00008093EA018093EB018093EC01DF91CF9115
:100E10000895CF93DF93CDB7DEB761970FB6F894FF
:100E2000DEBF0FBECDBF789484B5826084BD84B52B
:100E3000816084BD85B5826085BD85B5816085BDD5
:100E400080916E00816080936E001092810080918D
:100E50008100826080938100809181008160809315
:100E60008100809180008160809380008091B1003A
:100E700084608093B1008091B00081608093B00065
:100E800080917A00846080937A0080917A008260F9
:100E900080937A0080917A008E7F80937A0080918F
:100EA0007A00806880937A001092C100EBEDF0E048
:100EB0002491E7ECF0E08491882399F090E0880F8A
:100EC000991FFC01EA55FF4FA591B491FC01E4562E
:100ED000FF4F859194918FB7F894EC91E22BEC93AE
:100EE0008FBF60E08DE00E949C00E091EF01F091E7
:100EF000F0011386158614861286118610861782D5
:100F000016821582148213821092ED011092EE0166
:100F100011E0BE01665F7F4F8091EF019091F0017B
:100F20000E949503882309F47AC067E0CE010A96EF
:100F30000E94090299898913ECCF8091ED018F5F9E
:100F40008093ED018A85883231F008F04EC08031FF
:100F500011F08232F1F68091EE018F5F8093EE0105
:100F60008091E601811128C08091EF019091F001FC
:100F70000E94F002BE01665F7F4F8091EF01909169
:100F8000F0010E94A70240E064EB8091EF01909194
:100F9000F0010E9473028091EF019091F0010E9494
:100FA0002002082F8091EF019091F0010E94F00241
:100FB000011102C01093E6018A85803109F1BE015A
:100FC0006F5F7F4FCE010A960E942303882359F05A
:100FD0008D819A859B3311F487FD12C08F3391F078
:100FE00058F48F31C1F080E00EC08B3309F4B3CFD9
:100FF000823409F08ECFAFCF8F3579F08F3799F7E4
:101000008CE001C08AE09091E901981708F081CF47
:101010008093E9017ECF89E0F6CF8BE0F4CF109288
:10102000EA011092C9011092CA011092CB011092EC
:10103000CC011092BB011092BA011092B90110922A
:10104000B8010E949D0180E491E09093B7018093E4
:10105000B6018CE491E09093B5018093B40180E6F1
:101060008093BA008CE694E09093BD018093BC011C
:1010700086EC92E09093BF018093BE0188E19FE0EF
:101080000FB6F894A895809360000FBE909360000F
:1010900064E670E080E090E00E940D0100E010E066
:1010A00033243394A8958FB7F894C090D201D09090
:1010B000D301E090D401F090D5018FBF4090CD01D5
:1010C0005090CE016090CF017090D0018091C90105
:1010D0009091CA01A091CB01B091CC01C816D9065C
:1010E000EA06FB0608F459C08091C801811155C079
:1010F0008091EF019091F0010E94F00240E06CECD1
:101100008091EF019091F0010E9473024091E601FD
:1011100064E48091EF019091F0010E9473028FB717
:10112000F8948090D2019090D301A090D401B09017
:10113000D5018FBF8091EA01882329F18091EB01CD
:10114000882309F4C6C08091E6018111C2C0809154
:10115000EF019091F0010E9420028130A1F02FB7A1
:10116000F8948091D2019091D301A091D401B091D3
:10117000D5012FBF88199909AA09BB098E3E924053
:10118000A105B10520F33092C801C092C401D092EC
:10119000C501E092C601F092C7018091C801882381
:1011A00009F450C08091C4019091C501A091C6017D
:1011B000B091C701A7019601281B390B4A0B5B0BA5
:1011C000DA01C9018E3E9240A105B105D8F1109215
:1011D000C801D701C60180589444AF4FBF4F8093D8
:1011E000C9019093CA01A093CB01B093CC01E091C7
:1011F000EF01F091F0011386158614861286118690
:10120000108617821682158214821382BE01665FD1
:101210007F4F8091EF019091F0010E949503811121
:1012200081C060E070E08EEF92EC0E94790A9B0131
:10123000295C3F4F253B310508F411C11092C301D1
:101240001092C2018091C1018823B1F1D701C6017A
:1012500084199509A609B709409104015091050127
:10126000609106017091070184179507A607B707DB
:1012700058F0C092CD01D092CE01E092CF01F09211
:10128000D00180E090E0DC0140910001509101012B
:10129000609102017091030184179507A607B707B3
:1012A00008F0E2C08091C001811106C03092C001F7
:1012B00061E08DE00E949C006AE070E080E090E0D8
:1012C0000E940D010115110509F4ECCE0E940000E9
:1012D000E9CEE091E901E9508EEE92E0E33038F496
:1012E000F0E0EE0FFF1FE85FFE4F808191814C011F
:1012F000B12CA12C8091E701882329F060E0809136
:10130000E8010E949C00C501B4010E940D0180917A
:10131000E701882309F437CF61E08091E8010E945A
:101320009C0031CF67E0CE010A960E94090299899C
:10133000891377CFBE016F5F7F4FCE010A960E945F
:101340002303882309F46DCF3A81812C912C540119
:1013500037FF06C0812C912CF8EFAF2EBB24BA9436
:101360004A8569814B33B9F58D8187FF34C060FDB3
:1013700058CF70E090E080E043E0660F771F881F51
:10138000991F4A95D1F7607E777088279927232F78
:1013900030E050E040E0EBE0220F331F441F551FC8
:1013A000EA95D1F7622B732B842B952B6829792929
:1013B0008A299B29613854EE75075FEF85079507E9
:1013C0000CF42FCF0E94B10A20E030E040E05CE353
:1013D0000E94150B2ACF832F90E0982F8827990F12
:1013E000990F990F58E0659FB0011124682B792B54
:1013F000072E000C880B990B682979298A299B29CB
:101400004031C1F628852223A9F24B015C0183E01B
:10141000880C991CAA1CBB1C8A95D1F780E88822ED
:1014200087E0A822BB2430E2831A9108A108B10802
:10143000622F70E08F81AB01481B5109CA0196955C
:10144000982F8827979587950E944B0A072E000CA6
:10145000880B990B680D791D8A1D9B1DABCF70936E
:10146000C3016093C201EECE8091C001882309F4CC
:1014700023CF1092C00160E01CCF262FF999FECF38
:101480001FBA92BD81BD20BD0FB6F894FA9AF99AA1
:101490000FBE0196089597FB072E16F4009407D00F
:1014A00077FD09D00E945F0A07FC05D03EF49095B5
:1014B00081959F4F0895709561957F4F0895AA1B60
:1014C000BB1B51E107C0AA1FBB1FA617B70710F02F
:1014D000A61BB70B881F991F5A95A9F78095909561
:1014E000BC01CD010895EE0FFF1F0590F491E02D92
:1014F00009940E94800A6894B1110C940F0B08950E
:101500000E94F40A88F09F5798F0B92F9927B75195
:10151000B0F0E1F0660F771F881F991F1AF0BA9597
:10152000C9F714C0B13091F00E940E0BB1E00895DC
:101530000C940E0B672F782F8827B85F39F0B93FCE
:10154000CCF3869577956795B395D9F73EF490954A
:101550008095709561957F4F8F4F9F4F0895E894C8
:1015600009C097FB3EF490958095709561957F4FEB
:101570008F4F9F4F9923A9F0F92F96E9BB27939599
:10158000F695879577956795B795F111F8CFFAF4A9
:10159000BB0F11F460FF1BC06F5F7F4F8F4F9F4FDA
:1015A00016C0882311F096E911C0772321F09EE838
:1015B000872F762F05C0662371F096E8862F70E09E
:1015C00060E02AF09A95660F771F881FDAF7880F78
:1015D0009695879597F9089557FD9058440F551F94
:1015E00059F05F3F71F04795880F97FB991F61F0A5
:1015F0009F3F79F087950895121613061406551F1C
:10160000F2CF4695F1DF08C0161617061806991F87
:10161000F1CF86957105610508940895E894BB277C
:1016200066277727CB0197F908950E94280B0C9421
:10163000990B0E948B0B38F00E94920B20F095239F
:1016400011F00C94820B0C94880B11240C940F0B4A
:101650000E94EC0A70F3959FC1F3950F50E0551F5F
:10166000629FF001729FBB27F00DB11D639FAA27F7
:10167000F00DB11DAA1F649F6627B00DA11D661F46
:10168000829F2227B00DA11D621F739FB00DA11D67
:10169000621F839FA00D611D221F749F3327A00D21
:1016A000611D231F849F600D211D822F762F6A2FBD
:1016B00011249F5750409AF0F1F088234AF0EE0F22
:1016C000FF1FBB1F661F771F881F91505040A9F74F
:1016D0009E3F510580F00C94820B0C940F0B5F3FE2
:1016E000E4F3983ED4F3869577956795B795F7958B
:1016F000E7959F5FC1F7FE2B880F911D9695879503
:1017000097F9089597F99F6780E870E060E0089581
:101710009FEF80EC089500240A9416161706180609
:101720000906089500240A941216130614060506E5
:101730000895092E0394000C11F4882352F0BB0F76
:1017400040F4BF2B11F460FF04C06F5F7F4F8F4FD9
:081750009F4F0895F894FFCFAC
:10175800F4010000E80300005E00BC00770100000F
:101768000000F001E5010602BB01DE01CB01BC016E
:00000001FF
